:020000040800F2
:1000000038050020490100084D0100084F01000893
:1000100051010008530100085501000800000000CC
:100020000000000000000000000000005701000870
:1000300059010008000000005B0100085D01000894
:100040005F0100085F0100085F0100085F01000810
:100050005F0100085F010008590600085F01000801
:1000600089060008AD060008D10600085F010008F7
:100070005F0100085F0100085F0100085F010008E0
:100080005F0100085F0100085F0100085F010008D0
:100090005F0100085F0100085F0100085F010008C0
:1000A0005F0100085F0100085F0100085F010008B0
:1000B000E11300080D140008391400085F0100085E
:1000C0005F0100085F0100085F0100085F01000890
:1000D0005F010008091900085F0100085F010008BE
:1000E0005F0100085F0100085F0100085F01000870
:1000F0005F0100085F0100085F0100085F01000860
:100100005F0100085F010008651400085F01000836
:100110005F0100085F0100089D140008C914000871
:100120005F0100085F0100085F0100085F0100082F
:10013000DFF810D000F044F900480047B91B000870
:10014000AFF300803805002005480047FEE7FEE7D2
:10015000FEE7FEE7FEE7FEE7FEE7FEE7FEE7FEE777
:1001600031010008F0B480EA0102D40F4200B2EB82
:10017000410F02D20246084611464A0042D0C30D42
:10018000DDB2C1F3C752AD1A202D35DAC1F3160125
:1001900041F4000204B15242C5F1200602FA06F110
:1001A0002A411044B3EBD05F23D0C4B1012DA0EBA2
:1001B000C35009DCF0BC4FF0004202EAC352DBB28C
:1001C00000F5000000F0CEB8400000F1807000EBB8
:1001D000C350A0F1807040EAD170490009E049089D
:1001E00041EAC071A0EBC35000F50000400800EBED
:1001F000C350F0BC00F0ADB86142012202EB4101F6
:10020000001BF6E7F0BC704781F00041AAE780F0E0
:100210000040A7E780EA010210B502F00043400069
:1002200022D04A001FD0010E01EB1261C0F356002C
:10023000C2F3560240F4000042F40002A0FB022088
:1002400000047F39140400D0401C50EA124001D44D
:100250004000491EC2B20C0604EBD010401C4008FE
:10026000802A02D003E0002010BD20F00100002908
:1002700000DA0020184310BD30B480EA010202F019
:10028000004530F0004221F0004013D090B1C30D82
:10029000D40DC2F31601C0F31600E41A41F40001B4
:1002A00040F400027D34914201D3641C00E0490017
:1002B000002C02DA30BC002070474FF4000000230D
:1002C000914201D3891A034340084FEA4101F7D113
:1002D00051B1914202D14FF0004105E002D24FF0FE
:1002E000010101E06FF0010103EBC450284430BC70
:1002F00000F02FB896230022114600F033B820F00A
:100300000040C10DC0F3160040F400007F2901DA5F
:1003100000207047962903DCC1F19601C840704760
:1003200096398840704730B50B46014600202022A0
:10033000012409E021FA02F59D4205D303FA02F5F2
:10034000491B04FA02F52844151EA2F10102F1DC52
:1003500030BD0029A8BF7047401C490008BF20F0ED
:100360000100704710B4B0FA80FC00FA0CF050EABB
:10037000010404BF10BC704749B1CCF1200421FA3C
:1003800004F411FA0CF118BF012121430843A3EB37
:100390000C01CB1D4FEA00614FEA102042BF002044
:1003A00010BC704700EBC35010440029A4BF10BC20
:1003B0007047401C490008BF20F0010010BC704786
:1003C000064C074D06E0E06840F0010394E80700A2
:1003D00098471034AC42F6D3FFF7AEFE301D00084C
:1003E000501D000810B50A48007878B10848007818
:1003F000401E0749087000F085FD0446054949681C
:10040000601A00F021FE0348446000BF10BD0000E8
:10041000290000205800002003480078401C0249B1
:1004200008700020704700002900002010B50A481D
:10043000007840B900220521042000F0CDFC012005
:100440000549087007E001220521042000F0C4FCE2
:1004500000200149087010BD0400002010B500F014
:100460008DFE40F2F2320121044800F08BF804497D
:1004700008600846006800F0D9F810BD2D04000897
:100480000800002010B525480078042822D007DC99
:1004900068B101280CD0022810D0032832D113E013
:1004A00005281DD0142821D015282BD124E02FE0B9
:1004B0001A4801781AA001F069FA29E01748017872
:1004C0001DA001F063FA23E0144801781AA001F09E
:1004D0005DFA1DE01148017817A001F057FA17E006
:1004E0000E48017814A001F051FA11E00B48017890
:1004F00018A001F04BFA0BE00848017815A001F0B4
:1005000045FA05E00548017819A001F03FFA00BF5F
:1005100000BF00200149087010BD0000000000204D
:100520007072657373206B65792076616C75653ABE
:1005300025640D0A000000007265706561745072D8
:10054000657373206B65792076616C75653A2564F7
:100550000D0A00006C6F6E675072657373206B65D7
:10056000792076616C75653A25640D0A00000000FB
:10057000657272206B65792076616C75653A2564C9
:100580000D0A00002DE9F04105460E4617461820D9
:1005900001F02AFB044667602673A56000206073A3
:1005A0002046BDE8F081014611B94FF0FF30704799
:1005B000D1E904021061D1E9042050610020F6E77E
:1005C00000B50346587B10B96FF0030000BD184614
:1005D000FFF7E9FF0020587300BFF7E710B50246A8
:1005E0001369934205D1116151610A614A6100208A
:1005F00010BD06E018680C68A04201D81B6900E035
:1006000001E09342F6D100BF934206D058690161E0
:100610000B6158694861596105E0506901610A61DF
:100620005069486151610020E2E7000010B50446BE
:10063000607B012801D1401F10BD00F063FC6168A0
:10064000084420600120607321460248FFF7C6FF7E
:100650000020F1E74000002010B51E2001F080FAD4
:1006600006480078401C05490870012004490860CC
:1006700004480078401C0349087010BD2800002081
:10068000140401402900002010B50A2001F068FA86
:1006900004480078401C034908700420024908609F
:1006A00010BD0000280000201404014010B50A20ED
:1006B00001F056FA04480078401C034908700820ED
:1006C0000249086010BD0000280000201404014009
:1006D00010B50A2001F044FA0421084600F03EFB60
:1006E00020B904480078401C0249087010200249D3
:1006F000086010BD2A000020140401400246072AA9
:1007000002DB6FF001007047901CC2B239B9084893
:100710008069012393409843054B986106E00448A3
:100720008069012393401843014B98610020EAE758
:100730000010024070B50246002053881478072C40
:1007400077D2DFE804F0045AB1F2F1F0EF000021B3
:1007500050E001248C401C40002C49D0082913DAB9
:10076000FB4C24688E000F25B540AC43F84D2C603F
:100770005479157944EA85048D00AC40F44D2D6818
:100780002C43F34D2C601AE0F14C241D2468A1F198
:100790000805AE000F25B540AC43ED4D2D1D2C6076
:1007A0005479157944EA8504A1F10805AD00AC40FF
:1007B000E74D2D1D2D682C43E54D2D1D2C609479A2
:1007C0004CB9E34C0C34246801258D40AC43E04D1A
:1007D0000C352C6008E0DE4C0C34246801258D407B
:1007E0002C43DB4D0C352C6001248C405C40A3B2C3
:1007F0004C1CE1B2002BACD107E2002151E00124F6
:100800008C401C40ECB3082914DAD24C24688E00CA
:100810000F25B540AC43CF4D2C605479157944EA8F
:1008200085048D00AC40CB4D2D682C43C94D2C6008
:100830001BE0E7E1C74C241D2468A1F10805AE00C8
:100840000F25B540AC43C34D2D1D2C60547915794F
:1008500044EA8504A1F10805AD00AC40BD4D2D1D55
:100860002D682C43BB4D2D1D2C60947954B9B94C87
:100870000C34256801248C40A543B64C0C3425600B
:1008800009E00CE0B34C0C34256801248C4025436E
:10089000B04C0C34256001248C405C40A3B24C1C4D
:1008A000E1B2002BABD1B0E100214CE001248C403F
:1008B0001C40B4B3082913DAA74C24688E000F2516
:1008C000B540AC43A44D2C605479157944EA8504B5
:1008D0008D00AC40A04D2D682C439F4D2C6016E040
:1008E0009D4C6468A1F10805AE000F25B540AC43EE
:1008F000994D6C605479157944EA8504A1F1080595
:10090000AD00AC40944D6D682C43934D6C60947970
:1009100064B9914CE56801248C40A5438E4CE56098
:100920000BE00EE020E1BDE066E00FE08A4CE468F9
:1009300001258D402C43884DEC6001248C405C40A7
:10094000A3B24C1CE1B2002BB0D15EE1002150E01B
:1009500001248C401C40E4B3082913DA7F4C24683E
:100960008E000F25B540AC437C4D2C605479157931
:1009700044EA85048D00AC40784D2D682C43774DBA
:100980002C601AE0754C241D2468A1F10805AE0006
:100990000F25B540AC43714D2D1D2C605479157950
:1009A00044EA8504A1F10805AD00AC406B4D2D1D56
:1009B0002D682C43694D2D1D2C60947954B9674CDA
:1009C0000C34256801248C40A543644C0C3425600C
:1009D00009E00CE0614C0C34256801248C4025436F
:1009E0005E4C0C34256001248C405C40A3B24C1C4E
:1009F000E1B2002BACD108E1002150E001248C4091
:100A00001C40E4B3082913DA554C24688E000F25E6
:100A1000B540AC43524D2C605479157944EA8504B5
:100A20008D00AC404E4D2D682C434D4D2C601AE08E
:100A30004B4C241D2468A1F10805AE000F25B540DC
:100A4000AC43474D2D1D2C605479157944EA85043B
:100A5000A1F10805AD00AC40414D2D1D2D682C4382
:100A60003F4D2D1D2C60947954B93D4C0C342468B5
:100A700001258D40AC433A4D0C352C6009E00CE06B
:100A8000374C0C34256801248C402543344C0C34FD
:100A9000256001248C405C40A3B24C1CE1B2002BC9
:100AA000ACD1B2E0002150E001248C401C40E4B302
:100AB000082913DA2B4C24688E000F25B540AC436F
:100AC000284D2C605479157944EA85048D00AC409A
:100AD000244D2D682C43234D2C601AE0214C241DFD
:100AE0002468A1F10805AE000F25B540AC431D4DAB
:100AF0002D1D2C605479157944EA8504A1F108056F
:100B0000AD00AC40174D2D1D2D682C43154D2D1DEE
:100B10002C60947954B9134C0C34256801248C4012
:100B2000A543104C0C34256009E00CE00D4C0C344E
:100B3000246801258D402C430A4D0C352C6001247E
:100B40008C405C40A3B24C1CE1B2002BACD15CE009
:100B500000080140000C0140001001400014014059
:100B600000180140001C0140002148E001248C4095
:100B70001C40B4B3082913DA254C24688E000F25D5
:100B8000B540AC43224D2C605479157944EA850474
:100B90008D00AC401E4D2D682C431D4D2C6016E081
:100BA0001B4C6468A1F10805AE000F25B540AC43AD
:100BB000174D6C605479157944EA8504A1F1080554
:100BC000AD00AC40124D6D682C43114D6C609479B2
:100BD00044B90F4CE46801258D40AC430C4DEC60EA
:100BE00007E00AE00A4CE46801258D402C43084DDB
:100BF000EC6001248C405C40A3B24C1CE1B2002BA1
:100C0000B4D102E06FF0010000BF00BF70BD000072
:100C1000002001402DE9F041034600275D884C4843
:100C2000806940F00100DFF828C1CCF818000021ED
:100C300088E0012088402840002878D008464FEA04
:100C4000E17C01EB9C7CCCF387024FEAE17C01EB79
:100C50009C7C4FEAAC0CA1EB8C0C0CF0FF043D48E3
:100C600050F822004FEA84084FF00F0C0CFA08FCF1
:100C700020EA0C00DFF8DCC04CF822001E78604649
:100C800050F822004FEA840C06FA0CFC40EA0C00F3
:100C9000DFF8C0C04CF822002F4800684FF0010C6C
:100CA0000CFA01FC40EA0C00DFF8ACC0CCF8000004
:100CB000187920B101280FD0022839D11CE026482C
:100CC0000830D0F800C0012088404CEA000C2248CF
:100CD0000830C0F800C02EE01F480C3000684FF00C
:100CE000010C0CFA01FC40EA0C00DFF86CC00CF1BE
:100CF0000C0CCCF800001EE017480830D0F800C0FB
:100D0000012088404CEA000C13480830C0F800C0AD
:100D1000001D00684FF0010C0CFA01FC40EA0C00C9
:100D2000DFF834C00CF10C0CCCF8000003E007E055
:100D30006FF0010700BF00BF01208840684085B206
:100D4000481CC1B2002D7FF474AF3846BDE8F08175
:100D500000100240080001400004014010B50246A6
:100D600000230020072A21D2DFE802F004080C103B
:100D700014181C00114C2468A3B218E0104C24680D
:100D8000A3B214E00F4CA468A3B210E00E4C246888
:100D9000A3B20CE00D4C2468A3B208E00C4C24680C
:100DA000A3B204E00B4CA468A3B200E000BF00BFF4
:100DB00043FA01F404F0010010BD000008080140EE
:100DC000080C0140001001400814014008180140BF
:100DD000081C01400020014030B503460020072BCD
:100DE0007DD2DFE803F00415263748596A003AB986
:100DF0003D4C246801258D40AC433B4D2C6006E002
:100E0000394C246801258D402C43374D2C6069E016
:100E10003AB9364C246801258D40AC43334D2C60E3
:100E200006E0324C256801248C4025432F4C256078
:100E300058E03AB92E4CE46801258D40AC432C4D66
:100E4000EC6006E02A4CE56801248C402543284CE0
:100E5000E56047E03AB9274C246801258D40AC4352
:100E6000244D2C6006E0234C256801248C4025434A
:100E7000204C256036E03AB91F4C256801248C408F
:100E8000A5431D4C256006E01B4C256801248C40C1
:100E90002543194C256025E03AB9184C25680124F2
:100EA0008C40A543154C256006E0144C25680124B0
:100EB0008C402543114C256014E042B9104CE56884
:100EC00001248C40A5430E4CE56007E007E00C4C84
:100ED000E56801248C402543094CE56002E06FF091
:100EE000010000BF00BF30BD0C0801400C0C0140E8
:100EF000001001400C1401400C1801400C1C014072
:100F000000200140014800687047000018000020E0
:100F10001CB5002400F04FF804460CB120461CBD5F
:100F20000020009001908DF80000BDF8020040F014
:100F30000100ADF8020002208DF804006846FFF7BA
:100F400069FE0446022306220321184600F072F9C6
:100F500004208DF800000020ADF80200BDF802006A
:100F600040F00400ADF80200BDF8020040F00800B7
:100F7000ADF80200BDF8020040F01000ADF802002C
:100F800001208DF804006846FFF744FE0446022362
:100F900008221946184600F04DF9022309220121C2
:100FA000184600F047F902230A220021184600F0F3
:100FB00041F92046B3E71CB50024002000900190C1
:100FC0000121FFF79BFB00208DF80000BDF8020017
:100FD00040F00100ADF8020002208DF8040000206E
:100FE0008DF805008DF806006846FFF7A3FB044660
:100FF00001210420FFF782FB04208DF8000001206E
:101000008DF806000020ADF80200BDF8020040F0A7
:101010000400ADF80200BDF8020040F00800ADF891
:101020000200BDF8020040F01000ADF80200684672
:10103000FFF780FB044620461CBD10B50021084682
:10104000FFF78CFE10BD000070B50446FFF7F5FFFA
:1010500005464048007830B1012829D0022839D00F
:10106000032874D160E065B93A48007C3A490870B9
:1010700038498868FFF7A4FA00203649C860087428
:1010800015E03448007C18B103203249087002E0B2
:101090000120304908702F48007C401C2D490874FD
:1010A0008868FFF78DFA2B498868FFF7BFFA4FE091
:1010B0001DB90020274908700BE02648C06820446D
:1010C0002449C8600846C068B0F5967F01D902205F
:1010D00008703DE01DB900201E49087023E01D483E
:1010E000C06820441B49C8600846C06840F6723199
:1010F000884209D91748C06840F60841884203D29F
:101100001420154908700EE01248C06841F6FA61D3
:10111000884208D90F48C06841F69071884202D2CF
:1011200015200D49087013E01DB900200949087009
:101130000BE00848C06820440649C8600846C068FB
:10114000B0F5967F01D90220087001E0FFE700BFEB
:1011500000BF70BD580000200000002010B5FFF750
:10116000D7FE962201210348FFF70CFA0249886056
:1011700010BD000019040008580000201CB5012112
:101180000846FFF7BBFA01210420FFF7B7FA002059
:101190000090019001208DF80000BDF8020040F0A1
:1011A0002000ADF8020000208DF8040003208DF827
:1011B000050001208DF806006846FFF7BBFA042001
:1011C0008DF800006846FFF7B5FA1CBD00B5002099
:1011D00015490861C8601420486100208861C86111
:1011E0000846006840F001000860084640680F4962
:1011F00008400D494860084600680D4908400A4902
:1012000008600846006820F48020086008464068AE
:1012100020F4FE0048600020886000214FF000604C
:1012200000F058F800BD0000001002400000FFF878
:10123000FFFFF6FE2DE9F0410746884614461D469D
:10124000284600F033F8C5F1040007FA00F60F2035
:10125000284100EA0800064306F00F06E21704EBF7
:10126000D2625211920002F1E022D2F8002121460E
:10127000E31704EBD3635B11A4EB431C012303FAD4
:101280000CF31A432046E31704EBD3635B119B0076
:1012900003F1E023C3F800210348005D40EA061093
:1012A00001490855BDE8F08100E400E0014607234C
:1012B00023EA01021202054B18684FF6FF0318409B
:1012C000034B18431043014B186070470CED00E0CE
:1012D0000000FA05024A0A400243024B1A607047B6
:1012E00080FFFF1F08ED00E010B50F48006908B946
:1012F000002010BDFFF706FE0B4909690968884206
:1013000010D30948006981680020884706480469AD
:101310002046FFF755F9207B012802D12046FFF730
:1013200085F900BF0020E4E74000002010B500F080
:10133000E1F804480449086004480146086148612E
:10134000002010BDE91200081C0000204000002011
:1013500030B504460025FFF739FF1F48006840F408
:1013600080301D49086000BF1B480068400C002801
:10137000FAD04FF4806018494860A01EC4B20846F5
:10138000406840EA844048600846406840F4803045
:1013900048601248006840F03200104908600E486A
:1013A000006840F080700C49086000BF0A4800687F
:1013B000400E0028FAD00848406840F00200064974
:1013C000486005E004484068C0F3870505F0030560
:1013D000022DF7D130BD0000001002400020024075
:1013E0004FF08040008A00F0010020B106480068FC
:1013F000401C054908604FF08040008A20F0010041
:101400004FF08041088270470C0000200848008897
:1014100000F0010020B107480068401C0549086041
:101420000348008820F0010001490880704700004F
:1014300010040040100000200848008800F001005F
:1014400020B107480068401C05490860034800882F
:1014500020F001000149088070470000100800409A
:101460001400002010B50A48008800F0010040B1C7
:1014700008480068401C07490860002006490968C0
:1014800088470348008820F001000149088010BD0A
:10149000100C0040180000201C0000200848008AA2
:1014A00000F0010020B107480068401C05490860B1
:1014B0000348008A20F001000149088270470000BB
:1014C00000100040200000200848008800F00100C3
:1014D00020B107480068401C05490860034800889F
:1014E00020F00100014908807047000010140040FE
:1014F000240000201CB5002405208DF800000020E9
:101500008DF8010001208DF80200ADF80400DDE93E
:10151000000100F003F8044620461CBD73B5002608
:101520009DF80000092878D2DFE800F0770508521E
:10153000A1F3F1F0EF006FF00206D5E1EC48C069CD
:1015400040F00100EA49C8618804808940F0010048
:10155000890488810846008840F0010008809DF8D1
:101560000100012804D18007008840F008000880AD
:101570009DF8020020B1012806D002281BD10EE000
:101580004825BDF8044017E04FF4E155BDF80400CC
:1015900000EB80004FF6FF7101EA40040CE04FF4CD
:1015A000E155BDF8040040F2712148434FF6FF7148
:1015B00001EA001400E000BF00BF4FF080408485C6
:1015C000058502231C2219460120FFF733FE8BE11B
:1015D000C748C06940F00200C549C861C5480088D5
:1015E00040F00100C3490880C2480C38008840F030
:1015F0000100C0490C3908809DF80100012804D180
:101600000846008840F0080008809DF8020028B1D4
:10161000012807D002281CD10FE062E14825BDF85F
:10162000044017E04FF4E155BDF8040000EB8000E2
:101630004FF6FF7101EA40040CE04FF4E155BDF8AC
:10164000040040F2712148434FF6FF7101EA001493
:1016500000E000BF00BFA74820300480001F0580C5
:1016600002231D2203210120FFF7E4FD3CE1A048F5
:10167000C06940F004009E49C8619F48008840F05E
:1016800001009D4908809C480C38008840F001000A
:1016900099490C3908809DF80100012804D10846B9
:1016A000008840F0080008809DF8020020B1012861
:1016B00006D002281BD10EE04825BDF8044017E0F3
:1016C0004FF4E155BDF8040000EB80004FF6FF71C8
:1016D00001EA40040CE04FF4E155BDF8040040F28B
:1016E000712148434FF6FF7101EA001400E000BF8A
:1016F00000BF814820300480001F058002231E2285
:1017000004210120FFF796FDEEE0E7E098E04EE0CF
:10171000FFE77748C06940F008007549C86177481D
:10172000008840F001007549088074480C38008832
:1017300040F0010071490C3908809DF80100012832
:1017400004D10846008840F0080008809DF8020097
:1017500020B1012806D002281BD10EE04825BDF893
:10176000044017E04FF4E155BDF8040000EB8000A1
:101770004FF6FF7101EA40040CE04FF4E155BDF86B
:10178000040040F2712148434FF6FF7101EA001452
:1017900000E000BF00BF594820300480001F0580D2
:1017A0000223322205210120FFF744FD9CE050482E
:1017B000C06940F010004E49C8615148808940F02E
:1017C00001004F4988810846008840F001000880E8
:1017D0009DF80100012804D10846008840F0080067
:1017E00008809DF8020020B1012806D002281BD1F4
:1017F0000EE04825BDF8044017E04FF4E155BDF870
:10180000040000EB80004FF6FF7101EA40040CE099
:101810004FF4E155BDF8040040F2712148434FF602
:10182000FF7101EA001400E000BF00BF3448848566
:1018300005850223362206210120FFF7FBFC53E039
:101840002B48C06940F020002949C8612D48008814
:1018500040F001002B4908802A480C38008840F0ED
:10186000010028490C3908809DF80100012804D1A5
:101870000846008840F0080008809DF8020020B16A
:10188000012806D002281BD10EE04825BDF80440EF
:1018900017E04FF4E155BDF8040000EB80004FF66F
:1018A000FF7101EA40040CE04FF4E155BDF804007B
:1018B00040F2712148434FF6FF7101EA001400E045
:1018C00000BF00BF0F4820300480001F05800223A6
:1018D000372207210120FFF7ADFC05E06FF002067B
:1018E00002E06FF0010600BF00BF30467CBD000083
:1018F000001002400C0400400C0800400C0C00409A
:10190000001000400C1400401D49098801F020011E
:1019100011B31B49091D0988C8B21A49098801F485
:101920000041C9B91749098801F4804161B10A2809
:1019300003D00021134A118020E01249098841F4A4
:101940000041104A118019E00D2806D10D4909887F
:1019500041F480410B4A118010E00A490988C1F323
:101960000D01094A505407490988491C054A11804C
:1019700011460988C72901DD002111807047000048
:1019800000380140340000206C0000200FB4054BEB
:1019900010B503A9044A029800F018F810BC5DF8CD
:1019A00014FB00009D1B00083000002002E008C866
:1019B000121F08C1002AFAD170477047002001E0C9
:1019C00001C1121F002AFBD1704700002DE9FF4F13
:1019D00089B09B460446002506E025280BD05A46D0
:1019E0000B999047641C6D1C20780028F5D10DB030
:1019F0002846BDE8F08F0027B8460122474900E09D
:101A0000074314F8013F203B02FA03F00842F7D1E4
:101A100020782E2819D114F8010F47F004072A283E
:101A20000ED06FF02F022078A0F1300109290CD8D8
:101A300008EB880102EB410100EB0108641CF2E7AE
:101A40000A98641C50F8048B0A9020780028CED0A5
:101A5000642808D0692806D075281ED05A460B99EC
:101A600090476D1C58E00A994FF00A0901C90A9184
:101A7000002802DA40422D2102E0390504D52B214D
:101A80008DF82010012103E0F90704D02021F7E7A9
:101A90008A4608AE0DE00021FAE70A994FF00A09DC
:101AA00001C90A91F7E74946FEF73DFC303106F8D7
:101AB000011D0028F7D1ADEB060000F120097807E1
:101AC00001D44FF00108C84502DDA8EB090000E091
:101AD00000208046002706E008A85A46C05D0B9902
:101AE00090476D1C7F1C5745F6DB04E030205A46BA
:101AF0000B9990476D1CB8F10001A8F10108F5DCC5
:101B000005E016F8010B5A460B9990476D1CB9F188
:101B10000001A9F10109F4DC641C65E70928010052
:101B20004FF0E021096921F004014FF0E02211613A
:101B3000C21700EB5272C2F3C702074B1A70194664
:101B4000097801EB4102C2EBC1114FF6FF7202EAC4
:101B5000C101024A118070472C0000202E00002095
:101B600001460D4A12884A434FF0E0235A61002291
:101B70009A6101221A6100BF4FF0E022106900F063
:101B800001021AB100F48032002AF5D000224FF091
:101B9000E0231A619A6170472E00002000BF054AB9
:101BA000128802F04002002AF9D0C2B2014B1B1D7C
:101BB0001A807047003801400920FFF7C9FB482010
:101BC000FFF7AEFF4FF4E131482000F043F8FFF794
:101BD000ADFBFEF743FCFFF7C1FA03E0FEF702FCA2
:101BE000FEF750FCFAE70000F0B50B30154D20F081
:101BF00007010024144A0FE003688B420BD38B4289
:101C000005D95E1A43184768C3E9006700E04368D6
:101C1000136002C004E0021D10680028ECD12046C9
:101C2000002802D1286808B10020F0BD064A074804
:101C30001060074A121A22F00702C0E900240120AE
:101C40002860D7E73C000020380000203C0100203D
:101C5000380100202DE9F05F05460E463001FEF701
:101C600049FB81462E4905FB01F0FEF743FB824606
:101C70004946FEF701FB07463846FEF740FB84B2B3
:101C80002046FEF737FB83463946FEF7C0FA824608
:101C90004FF08341FEF7BEFA8146FEF730FB8046E7
:101CA0004FF6FF7000EA041404EB080084B21D48EC
:101CB000806940F004001B4988610846806940F44F
:101CC000804088611848006820F47F6016490860E9
:101CD0000846006840F40B6008601248C06840F491
:101CE00080401049C8600846C06820F48040C86041
:101CF0000E480480001D008842F20C0108430B4985
:101D0000091D08800846008840F020000880022352
:101D1000252203210846FFF78DFABDE8F09F000059
:101D200040420F0000100240040801400838014002
:101D3000501D00080000002040000000AC19000801
:101D4000901D000840000020F8040000BC190008A5
:101D50000000000000000000000000000000000083
:101D60000000000000000000000000000000000073
:101D70000000000000000000000000000000000063
:101D80000000000000000000000000000000000053
:0400000508000131BD
:00000001FF
